{
  "_format": "hh-sol-artifact-1",
  "contractName": "PlayToEarnX",
  "sourceName": "contracts/Play2EarnX.sol",
  "abi": [
    {
      "inputs": [
        {
          "internalType": "uint256",
          "name": "_pct",
          "type": "uint256"
        }
      ],
      "stateMutability": "nonpayable",
      "type": "constructor"
    },
    {
      "anonymous": false,
      "inputs": [
        {
          "indexed": true,
          "internalType": "address",
          "name": "owner",
          "type": "address"
        },
        {
          "indexed": true,
          "internalType": "address",
          "name": "spender",
          "type": "address"
        },
        {
          "indexed": false,
          "internalType": "uint256",
          "name": "value",
          "type": "uint256"
        }
      ],
      "name": "Approval",
      "type": "event"
    },
    {
      "anonymous": false,
      "inputs": [
        {
          "indexed": true,
          "internalType": "address",
          "name": "previousOwner",
          "type": "address"
        },
        {
          "indexed": true,
          "internalType": "address",
          "name": "newOwner",
          "type": "address"
        }
      ],
      "name": "OwnershipTransferred",
      "type": "event"
    },
    {
      "anonymous": false,
      "inputs": [
        {
          "indexed": true,
          "internalType": "address",
          "name": "from",
          "type": "address"
        },
        {
          "indexed": true,
          "internalType": "address",
          "name": "to",
          "type": "address"
        },
        {
          "indexed": false,
          "internalType": "uint256",
          "name": "value",
          "type": "uint256"
        }
      ],
      "name": "Transfer",
      "type": "event"
    },
    {
      "inputs": [
        {
          "internalType": "uint256",
          "name": "gameId",
          "type": "uint256"
        },
        {
          "internalType": "uint256",
          "name": "index",
          "type": "uint256"
        }
      ],
      "name": "acceptInvitation",
      "outputs": [],
      "stateMutability": "payable",
      "type": "function"
    },
    {
      "inputs": [
        {
          "internalType": "address",
          "name": "owner",
          "type": "address"
        },
        {
          "internalType": "address",
          "name": "spender",
          "type": "address"
        }
      ],
      "name": "allowance",
      "outputs": [
        {
          "internalType": "uint256",
          "name": "",
          "type": "uint256"
        }
      ],
      "stateMutability": "view",
      "type": "function"
    },
    {
      "inputs": [
        {
          "internalType": "address",
          "name": "spender",
          "type": "address"
        },
        {
          "internalType": "uint256",
          "name": "amount",
          "type": "uint256"
        }
      ],
      "name": "approve",
      "outputs": [
        {
          "internalType": "bool",
          "name": "",
          "type": "bool"
        }
      ],
      "stateMutability": "nonpayable",
      "type": "function"
    },
    {
      "inputs": [
        {
          "internalType": "address",
          "name": "account",
          "type": "address"
        }
      ],
      "name": "balanceOf",
      "outputs": [
        {
          "internalType": "uint256",
          "name": "",
          "type": "uint256"
        }
      ],
      "stateMutability": "view",
      "type": "function"
    },
    {
      "inputs": [
        {
          "internalType": "string",
          "name": "title",
          "type": "string"
        },
        {
          "internalType": "string",
          "name": "description",
          "type": "string"
        },
        {
          "internalType": "uint256",
          "name": "participants",
          "type": "uint256"
        },
        {
          "internalType": "uint256",
          "name": "numberOfWinners",
          "type": "uint256"
        },
        {
          "internalType": "uint256",
          "name": "startDate",
          "type": "uint256"
        },
        {
          "internalType": "uint256",
          "name": "endDate",
          "type": "uint256"
        }
      ],
      "name": "createGame",
      "outputs": [],
      "stateMutability": "payable",
      "type": "function"
    },
    {
      "inputs": [],
      "name": "decimals",
      "outputs": [
        {
          "internalType": "uint8",
          "name": "",
          "type": "uint8"
        }
      ],
      "stateMutability": "view",
      "type": "function"
    },
    {
      "inputs": [
        {
          "internalType": "address",
          "name": "spender",
          "type": "address"
        },
        {
          "internalType": "uint256",
          "name": "subtractedValue",
          "type": "uint256"
        }
      ],
      "name": "decreaseAllowance",
      "outputs": [
        {
          "internalType": "bool",
          "name": "",
          "type": "bool"
        }
      ],
      "stateMutability": "nonpayable",
      "type": "function"
    },
    {
      "inputs": [
        {
          "internalType": "uint256",
          "name": "gameId",
          "type": "uint256"
        }
      ],
      "name": "deleteGame",
      "outputs": [],
      "stateMutability": "nonpayable",
      "type": "function"
    },
    {
      "inputs": [
        {
          "internalType": "uint256",
          "name": "gameId",
          "type": "uint256"
        }
      ],
      "name": "getGame",
      "outputs": [
        {
          "components": [
            {
              "internalType": "uint256",
              "name": "id",
              "type": "uint256"
            },
            {
              "internalType": "string",
              "name": "title",
              "type": "string"
            },
            {
              "internalType": "string",
              "name": "description",
              "type": "string"
            },
            {
              "internalType": "address",
              "name": "owner",
              "type": "address"
            },
            {
              "internalType": "uint256",
              "name": "participants",
              "type": "uint256"
            },
            {
              "internalType": "uint256",
              "name": "numberOfWinners",
              "type": "uint256"
            },
            {
              "internalType": "uint256",
              "name": "acceptees",
              "type": "uint256"
            },
            {
              "internalType": "uint256",
              "name": "stake",
              "type": "uint256"
            },
            {
              "internalType": "uint256",
              "name": "startDate",
              "type": "uint256"
            },
            {
              "internalType": "uint256",
              "name": "endDate",
              "type": "uint256"
            },
            {
              "internalType": "uint256",
              "name": "timestamp",
              "type": "uint256"
            },
            {
              "internalType": "bool",
              "name": "deleted",
              "type": "bool"
            },
            {
              "internalType": "bool",
              "name": "paidOut",
              "type": "bool"
            }
          ],
          "internalType": "struct PlayToEarnX.GameStruct",
          "name": "",
          "type": "tuple"
        }
      ],
      "stateMutability": "view",
      "type": "function"
    },
    {
      "inputs": [],
      "name": "getGames",
      "outputs": [
        {
          "components": [
            {
              "internalType": "uint256",
              "name": "id",
              "type": "uint256"
            },
            {
              "internalType": "string",
              "name": "title",
              "type": "string"
            },
            {
              "internalType": "string",
              "name": "description",
              "type": "string"
            },
            {
              "internalType": "address",
              "name": "owner",
              "type": "address"
            },
            {
              "internalType": "uint256",
              "name": "participants",
              "type": "uint256"
            },
            {
              "internalType": "uint256",
              "name": "numberOfWinners",
              "type": "uint256"
            },
            {
              "internalType": "uint256",
              "name": "acceptees",
              "type": "uint256"
            },
            {
              "internalType": "uint256",
              "name": "stake",
              "type": "uint256"
            },
            {
              "internalType": "uint256",
              "name": "startDate",
              "type": "uint256"
            },
            {
              "internalType": "uint256",
              "name": "endDate",
              "type": "uint256"
            },
            {
              "internalType": "uint256",
              "name": "timestamp",
              "type": "uint256"
            },
            {
              "internalType": "bool",
              "name": "deleted",
              "type": "bool"
            },
            {
              "internalType": "bool",
              "name": "paidOut",
              "type": "bool"
            }
          ],
          "internalType": "struct PlayToEarnX.GameStruct[]",
          "name": "Games",
          "type": "tuple[]"
        }
      ],
      "stateMutability": "view",
      "type": "function"
    },
    {
      "inputs": [
        {
          "internalType": "uint256",
          "name": "gameId",
          "type": "uint256"
        }
      ],
      "name": "getInvitations",
      "outputs": [
        {
          "components": [
            {
              "internalType": "uint256",
              "name": "id",
              "type": "uint256"
            },
            {
              "internalType": "string",
              "name": "title",
              "type": "string"
            },
            {
              "internalType": "uint256",
              "name": "gameId",
              "type": "uint256"
            },
            {
              "internalType": "address",
              "name": "receiver",
              "type": "address"
            },
            {
              "internalType": "address",
              "name": "sender",
              "type": "address"
            },
            {
              "internalType": "bool",
              "name": "responded",
              "type": "bool"
            },
            {
              "internalType": "bool",
              "name": "accepted",
              "type": "bool"
            },
            {
              "internalType": "uint256",
              "name": "stake",
              "type": "uint256"
            },
            {
              "internalType": "uint256",
              "name": "timestamp",
              "type": "uint256"
            }
          ],
          "internalType": "struct PlayToEarnX.InvitationStruct[]",
          "name": "",
          "type": "tuple[]"
        }
      ],
      "stateMutability": "view",
      "type": "function"
    },
    {
      "inputs": [],
      "name": "getMyGames",
      "outputs": [
        {
          "components": [
            {
              "internalType": "uint256",
              "name": "id",
              "type": "uint256"
            },
            {
              "internalType": "string",
              "name": "title",
              "type": "string"
            },
            {
              "internalType": "string",
              "name": "description",
              "type": "string"
            },
            {
              "internalType": "address",
              "name": "owner",
              "type": "address"
            },
            {
              "internalType": "uint256",
              "name": "participants",
              "type": "uint256"
            },
            {
              "internalType": "uint256",
              "name": "numberOfWinners",
              "type": "uint256"
            },
            {
              "internalType": "uint256",
              "name": "acceptees",
              "type": "uint256"
            },
            {
              "internalType": "uint256",
              "name": "stake",
              "type": "uint256"
            },
            {
              "internalType": "uint256",
              "name": "startDate",
              "type": "uint256"
            },
            {
              "internalType": "uint256",
              "name": "endDate",
              "type": "uint256"
            },
            {
              "internalType": "uint256",
              "name": "timestamp",
              "type": "uint256"
            },
            {
              "internalType": "bool",
              "name": "deleted",
              "type": "bool"
            },
            {
              "internalType": "bool",
              "name": "paidOut",
              "type": "bool"
            }
          ],
          "internalType": "struct PlayToEarnX.GameStruct[]",
          "name": "Games",
          "type": "tuple[]"
        }
      ],
      "stateMutability": "view",
      "type": "function"
    },
    {
      "inputs": [],
      "name": "getMyInvitations",
      "outputs": [
        {
          "components": [
            {
              "internalType": "uint256",
              "name": "id",
              "type": "uint256"
            },
            {
              "internalType": "string",
              "name": "title",
              "type": "string"
            },
            {
              "internalType": "uint256",
              "name": "gameId",
              "type": "uint256"
            },
            {
              "internalType": "address",
              "name": "receiver",
              "type": "address"
            },
            {
              "internalType": "address",
              "name": "sender",
              "type": "address"
            },
            {
              "internalType": "bool",
              "name": "responded",
              "type": "bool"
            },
            {
              "internalType": "bool",
              "name": "accepted",
              "type": "bool"
            },
            {
              "internalType": "uint256",
              "name": "stake",
              "type": "uint256"
            },
            {
              "internalType": "uint256",
              "name": "timestamp",
              "type": "uint256"
            }
          ],
          "internalType": "struct PlayToEarnX.InvitationStruct[]",
          "name": "Invitation",
          "type": "tuple[]"
        }
      ],
      "stateMutability": "view",
      "type": "function"
    },
    {
      "inputs": [],
      "name": "getPaidOutGames",
      "outputs": [
        {
          "components": [
            {
              "internalType": "uint256",
              "name": "id",
              "type": "uint256"
            },
            {
              "internalType": "string",
              "name": "title",
              "type": "string"
            },
            {
              "internalType": "string",
              "name": "description",
              "type": "string"
            },
            {
              "internalType": "address",
              "name": "owner",
              "type": "address"
            },
            {
              "internalType": "uint256",
              "name": "participants",
              "type": "uint256"
            },
            {
              "internalType": "uint256",
              "name": "numberOfWinners",
              "type": "uint256"
            },
            {
              "internalType": "uint256",
              "name": "acceptees",
              "type": "uint256"
            },
            {
              "internalType": "uint256",
              "name": "stake",
              "type": "uint256"
            },
            {
              "internalType": "uint256",
              "name": "startDate",
              "type": "uint256"
            },
            {
              "internalType": "uint256",
              "name": "endDate",
              "type": "uint256"
            },
            {
              "internalType": "uint256",
              "name": "timestamp",
              "type": "uint256"
            },
            {
              "internalType": "bool",
              "name": "deleted",
              "type": "bool"
            },
            {
              "internalType": "bool",
              "name": "paidOut",
              "type": "bool"
            }
          ],
          "internalType": "struct PlayToEarnX.GameStruct[]",
          "name": "Games",
          "type": "tuple[]"
        }
      ],
      "stateMutability": "view",
      "type": "function"
    },
    {
      "inputs": [
        {
          "internalType": "uint256",
          "name": "gameId",
          "type": "uint256"
        }
      ],
      "name": "getScores",
      "outputs": [
        {
          "components": [
            {
              "internalType": "uint256",
              "name": "id",
              "type": "uint256"
            },
            {
              "internalType": "uint256",
              "name": "gameId",
              "type": "uint256"
            },
            {
              "internalType": "address",
              "name": "player",
              "type": "address"
            },
            {
              "internalType": "uint256",
              "name": "score",
              "type": "uint256"
            },
            {
              "internalType": "uint256",
              "name": "prize",
              "type": "uint256"
            },
            {
              "internalType": "bool",
              "name": "played",
              "type": "bool"
            }
          ],
          "internalType": "struct PlayToEarnX.ScoreStruct[]",
          "name": "",
          "type": "tuple[]"
        }
      ],
      "stateMutability": "view",
      "type": "function"
    },
    {
      "inputs": [
        {
          "internalType": "address",
          "name": "spender",
          "type": "address"
        },
        {
          "internalType": "uint256",
          "name": "addedValue",
          "type": "uint256"
        }
      ],
      "name": "increaseAllowance",
      "outputs": [
        {
          "internalType": "bool",
          "name": "",
          "type": "bool"
        }
      ],
      "stateMutability": "nonpayable",
      "type": "function"
    },
    {
      "inputs": [
        {
          "internalType": "address",
          "name": "receiver",
          "type": "address"
        },
        {
          "internalType": "uint256",
          "name": "gameId",
          "type": "uint256"
        }
      ],
      "name": "invitePlayer",
      "outputs": [],
      "stateMutability": "nonpayable",
      "type": "function"
    },
    {
      "inputs": [],
      "name": "name",
      "outputs": [
        {
          "internalType": "string",
          "name": "",
          "type": "string"
        }
      ],
      "stateMutability": "view",
      "type": "function"
    },
    {
      "inputs": [],
      "name": "owner",
      "outputs": [
        {
          "internalType": "address",
          "name": "",
          "type": "address"
        }
      ],
      "stateMutability": "view",
      "type": "function"
    },
    {
      "inputs": [
        {
          "internalType": "uint256",
          "name": "gameId",
          "type": "uint256"
        }
      ],
      "name": "payout",
      "outputs": [],
      "stateMutability": "nonpayable",
      "type": "function"
    },
    {
      "inputs": [
        {
          "internalType": "uint256",
          "name": "gameId",
          "type": "uint256"
        },
        {
          "internalType": "uint256",
          "name": "index",
          "type": "uint256"
        },
        {
          "internalType": "uint256",
          "name": "score",
          "type": "uint256"
        }
      ],
      "name": "playGame",
      "outputs": [],
      "stateMutability": "nonpayable",
      "type": "function"
    },
    {
      "inputs": [
        {
          "internalType": "uint256",
          "name": "gameId",
          "type": "uint256"
        },
        {
          "internalType": "uint256",
          "name": "index",
          "type": "uint256"
        }
      ],
      "name": "rejectInvitation",
      "outputs": [],
      "stateMutability": "nonpayable",
      "type": "function"
    },
    {
      "inputs": [],
      "name": "renounceOwnership",
      "outputs": [],
      "stateMutability": "nonpayable",
      "type": "function"
    },
    {
      "inputs": [
        {
          "internalType": "uint256",
          "name": "_pct",
          "type": "uint256"
        }
      ],
      "name": "setFeePercent",
      "outputs": [],
      "stateMutability": "nonpayable",
      "type": "function"
    },
    {
      "inputs": [],
      "name": "symbol",
      "outputs": [
        {
          "internalType": "string",
          "name": "",
          "type": "string"
        }
      ],
      "stateMutability": "view",
      "type": "function"
    },
    {
      "inputs": [],
      "name": "totalSupply",
      "outputs": [
        {
          "internalType": "uint256",
          "name": "",
          "type": "uint256"
        }
      ],
      "stateMutability": "view",
      "type": "function"
    },
    {
      "inputs": [
        {
          "internalType": "address",
          "name": "to",
          "type": "address"
        },
        {
          "internalType": "uint256",
          "name": "amount",
          "type": "uint256"
        }
      ],
      "name": "transfer",
      "outputs": [
        {
          "internalType": "bool",
          "name": "",
          "type": "bool"
        }
      ],
      "stateMutability": "nonpayable",
      "type": "function"
    },
    {
      "inputs": [
        {
          "internalType": "address",
          "name": "from",
          "type": "address"
        },
        {
          "internalType": "address",
          "name": "to",
          "type": "address"
        },
        {
          "internalType": "uint256",
          "name": "amount",
          "type": "uint256"
        }
      ],
      "name": "transferFrom",
      "outputs": [
        {
          "internalType": "bool",
          "name": "",
          "type": "bool"
        }
      ],
      "stateMutability": "nonpayable",
      "type": "function"
    },
    {
      "inputs": [
        {
          "internalType": "address",
          "name": "newOwner",
          "type": "address"
        }
      ],
      "name": "transferOwnership",
      "outputs": [],
      "stateMutability": "nonpayable",
      "type": "function"
    }
  ],
  "bytecode": "0x60806040523480156200001157600080fd5b506040516200428938038062004289833981016040819052620000349162000110565b6040518060400160405280600c81526020016b283630bc902a379022b0b93760a11b8152506040518060400160405280600381526020016250324560e81b8152506200008f62000089620000bc60201b60201c565b620000c0565b600180556005620000a18382620001cf565b506006620000b08282620001cf565b505050600b556200029b565b3390565b600080546001600160a01b038381166001600160a01b0319831681178455604051919092169283917f8be0079c531659141344cd1fd0a4f28419497f9722a3daafe3b4186f6b6457e09190a35050565b6000602082840312156200012357600080fd5b5051919050565b634e487b7160e01b600052604160045260246000fd5b600181811c908216806200015557607f821691505b6020821081036200017657634e487b7160e01b600052602260045260246000fd5b50919050565b601f821115620001ca57600081815260208120601f850160051c81016020861015620001a55750805b601f850160051c820191505b81811015620001c657828155600101620001b1565b5050505b505050565b81516001600160401b03811115620001eb57620001eb6200012a565b6200020381620001fc845462000140565b846200017c565b602080601f8311600181146200023b5760008415620002225750858301515b600019600386901b1c1916600185901b178555620001c6565b600085815260208120601f198616915b828110156200026c578886015182559484019460019091019084016200024b565b50858210156200028b5787850151600019600388901b60f8161c191681555b5050505050600190811b01905550565b613fde80620002ab6000396000f3fe6080604052600436106101c25760003560e01c8063715018a6116100f7578063a09621c711610095578063c04c594711610064578063c04c594714610500578063dd62ed3e14610515578063e115234314610535578063f2fde38b1461055557600080fd5b8063a09621c714610473578063a2f77bcc14610493578063a457c2d7146104c0578063a9059cbb146104e057600080fd5b8063872ff923116100d1578063872ff923146103ff5780638da5cb5b1461041457806390d559a71461043c57806395d89b411461045e57600080fd5b8063715018a6146103b75780637a2f2136146103cc5780637ce3489b146103df57600080fd5b806323b872dd11610164578063395093511161013e578063395093511461032157806339bd3bbb146103415780635d12ace41461036157806370a082311461038157600080fd5b806323b872dd146102c5578063248a55a1146102e5578063313ce5671461030557600080fd5b8063095ea7b3116101a0578063095ea7b31461024157806318160ddd146102715780631eb4a1e5146102905780632246fe0b146102a557600080fd5b80630210d751146101c757806304527d90146101f257806306fdde031461021f575b600080fd5b3480156101d357600080fd5b506101dc610575565b6040516101e99190613909565b60405180910390f35b3480156101fe57600080fd5b5061021261020d36600461396b565b610896565b6040516101e99190613984565b34801561022b57600080fd5b5061023461094c565b6040516101e99190613a07565b34801561024d57600080fd5b5061026161025c366004613a36565b6109de565b60405190151581526020016101e9565b34801561027d57600080fd5b506004545b6040519081526020016101e9565b6102a361029e366004613b03565b6109f8565b005b3480156102b157600080fd5b506102a36102c0366004613a36565b610e5c565b3480156102d157600080fd5b506102616102e0366004613b8a565b611149565b3480156102f157600080fd5b506102a361030036600461396b565b61116d565b34801561031157600080fd5b50604051601281526020016101e9565b34801561032d57600080fd5b5061026161033c366004613a36565b611351565b34801561034d57600080fd5b506102a361035c366004613bc6565b611373565b34801561036d57600080fd5b506102a361037c366004613be8565b61144e565b34801561038d57600080fd5b5061028261039c366004613c14565b6001600160a01b031660009081526002602052604090205490565b3480156103c357600080fd5b506102a36116d0565b6102a36103da366004613bc6565b6116e4565b3480156103eb57600080fd5b506102a36103fa36600461396b565b611900565b34801561040b57600080fd5b506101dc611980565b34801561042057600080fd5b506000546040516001600160a01b0390911681526020016101e9565b34801561044857600080fd5b50610451611c95565b6040516101e99190613c2f565b34801561046a57600080fd5b50610234611f3c565b34801561047f57600080fd5b5061045161048e36600461396b565b611f4b565b34801561049f57600080fd5b506104b36104ae36600461396b565b6120b7565b6040516101e99190613d0b565b3480156104cc57600080fd5b506102616104db366004613a36565b612291565b3480156104ec57600080fd5b506102616104fb366004613a36565b61230c565b34801561050c57600080fd5b506101dc61231a565b34801561052157600080fd5b50610282610530366004613d1e565b612631565b34801561054157600080fd5b506102a361055036600461396b565b61265c565b34801561056157600080fd5b506102a3610570366004613c14565b612c88565b6060600060015b60075481116105e5576000818152600d60205260409020600b015460ff161580156105c057506000818152600d60205260409020600301546001600160a01b031633145b156105d357816105cf81613d67565b9250505b806105dd81613d67565b91505061057c565b508067ffffffffffffffff8111156105ff576105ff613a60565b60405190808252806020026020018201604052801561063857816020015b6106256136db565b81526020019060019003908161061d5790505b509150600060015b6007548111610890576000818152600d60205260409020600b015460ff1615801561068457506000818152600d60205260409020600301546001600160a01b031633145b1561087e57600d6000828152602001908152602001600020604051806101a0016040529081600082015481526020016001820180546106c290613d80565b80601f01602080910402602001604051908101604052809291908181526020018280546106ee90613d80565b801561073b5780601f106107105761010080835404028352916020019161073b565b820191906000526020600020905b81548152906001019060200180831161071e57829003601f168201915b5050505050815260200160028201805461075490613d80565b80601f016020809104026020016040519081016040528092919081815260200182805461078090613d80565b80156107cd5780601f106107a2576101008083540402835291602001916107cd565b820191906000526020600020905b8154815290600101906020018083116107b057829003601f168201915b505050918352505060038201546001600160a01b03166020820152600482015460408201526005820154606082015260068201546080820152600782015460a0820152600882015460c0820152600982015460e0820152600a82015461010080830191909152600b9092015460ff8082161515610120840152929004909116151561014090910152848361086081613d67565b94508151811061087257610872613dba565b60200260200101819052505b8061088881613d67565b915050610640565b50505090565b6060600f6000838152602001908152602001600020805480602002602001604051908101604052809291908181526020016000905b828210156109415760008481526020908190206040805160c08101825260068602909201805483526001808201548486015260028201546001600160a01b03169284019290925260038101546060840152600481015460808401526005015460ff16151560a083015290835290920191016108cb565b505050509050919050565b60606005805461095b90613d80565b80601f016020809104026020016040519081016040528092919081815260200182805461098790613d80565b80156109d45780601f106109a9576101008083540402835291602001916109d4565b820191906000526020600020905b8154815290600101906020018083116109b757829003601f168201915b5050505050905090565b6000336109ec818585612cfe565b60019150505b92915050565b60003411610a4d5760405162461bcd60e51b815260206004820152601f60248201527f5374616b65206d7573742062652067726561746572207468616e207a65726f0060448201526064015b60405180910390fd5b60018411610aac5760405162461bcd60e51b815260206004820152602660248201527f506172746974696370616e7473206d7573742062652067726561746572207468604482015265616e206f6e6560d01b6064820152608401610a44565b6000865111610af55760405162461bcd60e51b81526020600482015260156024820152745469746c652063616e6e6f7420626520656d70747960581b6044820152606401610a44565b6000855111610b465760405162461bcd60e51b815260206004820152601b60248201527f4465736372697074696f6e2063616e6e6f7420626520656d70747900000000006044820152606401610a44565b60008211610ba25760405162461bcd60e51b8152602060048201526024808201527f53746172742064617465206d7573742062652067726561746572207468616e206044820152637a65726f60e01b6064820152608401610a44565b818111610c025760405162461bcd60e51b815260206004820152602860248201527f456e642064617465206d7573742062652067726561746572207468616e207374604482015267617274206461746560c01b6064820152608401610a44565b60008311610c525760405162461bcd60e51b815260206004820181905260248201527f4e756d626572204f662077696e6e6572732063616e6e6f74206265207a65726f6044820152606401610a44565b610c60600780546001019055565b610c686136db565b600754815260208101879052604081018690526080810185905260a08101849052610100810183905261012081018290523460e0820152336060820152610cad612e22565b61014082015280516000908152600d6020908152604090912082518155908201518291906001820190610ce09082613e1e565b5060408201516002820190610cf59082613e1e565b5060608201516003820180546001600160a01b0319166001600160a01b039092169190911790556080820151600482015560a0820151600582015560c0820151600682015560e082015160078201556101008083015160088301556101208301516009830155610140830151600a830155610160830151600b90920180546101809094015161ffff1990941692151561ff001916929092179215150291909117905580516000908152600c60205260409020805460ff191660011790558051610dbd90612e41565b610e035760405162461bcd60e51b81526020600482015260176024820152762330b4b632b2103a379031b932b0ba3290383630bcb2b960491b6044820152606401610a44565b8051610e0e90612f43565b610e535760405162461bcd60e51b81526020600482015260166024820152754661696c656420746f206372656174652073636f726560501b6044820152606401610a44565b50505050505050565b6000818152600c602052604090205460ff16610e8a5760405162461bcd60e51b8152600401610a4490613ede565b6000818152600d6020526040902060048101546006909101541115610ee35760405162461bcd60e51b815260206004820152600f60248201526e4f7574206f6620636170616369747960881b6044820152606401610a44565b60008181526010602090815260408083206001600160a01b038616845290915290205460ff1615610f565760405162461bcd60e51b815260206004820152601e60248201527f506c6179657220697320616c726561647920696e20746869732067616d6500006044820152606401610a44565b610f64600980546001019055565b610f6c613750565b600954815260408082018390526000838152600d602052206001018054610f9290613d80565b80601f0160208091040260200160405190810160405280929190818152602001828054610fbe90613d80565b801561100b5780601f10610fe05761010080835404028352916020019161100b565b820191906000526020600020905b815481529060010190602001808311610fee57829003601f168201915b505050505060208201526001600160a01b0383166060820152336080820152611032612e22565b6101008201526000828152600d6020908152604080832060079081015460e0860152858452601183528184206001600160a01b03881685528352818420805460ff1916600190811790915586855260128452918420805480840182559085529383902085519490910201928355908301518392918201906110b39082613e1e565b506040820151600282015560608201516003820180546001600160a01b0319166001600160a01b03928316179055608083015160048301805460a086015160c0870151939094166001600160a81b031990911617600160a01b931515939093029290921760ff60a81b1916600160a81b9115159190910217905560e0820151600582015561010090910151600690910155505050565b600033611157858285612fe7565b611162858585613061565b506001949350505050565b6000818152600c602052604090205460ff1661119b5760405162461bcd60e51b8152600401610a4490613ede565b6000818152600d60205260409020600301546001600160a01b031633146111d45760405162461bcd60e51b8152600401610a4490613f06565b6000818152600d60205260409020600601546001146112355760405162461bcd60e51b815260206004820152601c60248201527f5061727469636970616e747320616c726561647920696e2067616d65000000006044820152606401610a44565b6000818152600e6020526040902080548061125257611252613f33565b600082815260208082206003600019909401938402018281556001810183905560020180546001600160a01b031916905591909255828252600f9052604090208054806112a1576112a1613f33565b60008281526020808220600660001990940193840201828155600181018390556002810180546001600160a01b03191690556003810183905560048101839055600501805460ff1990811690915592909355838152601083526040808220338084529085528183208054909416909355848252600d909352919091206007015461132b919061320c565b6000908152600d602052604081206006810191909155600b01805460ff19166001179055565b6000336109ec8185856113648383612631565b61136e9190613f49565b612cfe565b6000828152600c602052604090205460ff166113a15760405162461bcd60e51b8152600401610a4490613ede565b60008281526012602052604090208054339190839081106113c4576113c4613dba565b60009182526020909120600360079092020101546001600160a01b0316146113fe5760405162461bcd60e51b8152600401610a4490613f06565b60008281526012602052604090208054600191908390811061142257611422613dba565b906000526020600020906007020160040160146101000a81548160ff0219169083151502179055505050565b6000838152600c602052604090205460ff1661149d5760405162461bcd60e51b815260206004820152600e60248201526d19d85b59481b9bdd08199bdd5b9960921b6044820152606401610a44565b6000838152600d602052604090206005810154600690910154116114fc5760405162461bcd60e51b8152602060048201526016602482015275139bdd08195b9bdd59da081c1b185e595c9cc81e595d60521b6044820152606401610a44565b6000838152600f6020526040902080548491908490811061151f5761151f613dba565b906000526020600020906006020160010154146115715760405162461bcd60e51b815260206004820152601060248201526f141b185e595c881b9bdd08199bdd5b9960821b6044820152606401610a44565b6000838152600f6020526040902080548390811061159157611591613dba565b600091825260209091206005600690920201015460ff16156115ee5760405162461bcd60e51b81526020600482015260166024820152751cd8dbdc9948185b1c9958591e481c9958dbdc99195960521b6044820152606401610a44565b6000838152600f6020526040902080543391908490811061161157611611613dba565b60009182526020909120600260069092020101546001600160a01b03161461164b5760405162461bcd60e51b8152600401610a4490613f06565b6000838152600f6020526040902080548291908490811061166e5761166e613dba565b9060005260206000209060060201600301819055506001600f600085815260200190815260200160002083815481106116a9576116a9613dba565b60009182526020909120600690910201600501805460ff1916911515919091179055505050565b6116d8613271565b6116e260006132cb565b565b6000828152600c602052604090205460ff166117125760405162461bcd60e51b8152600401610a4490613ede565b6000828152600d60205260409020600701543410156117685760405162461bcd60e51b8152602060048201526012602482015271125b9cdd599998da595b9d08185b5bdd5b9d60721b6044820152606401610a44565b600082815260126020526040902080543391908390811061178b5761178b613dba565b60009182526020909120600360079092020101546001600160a01b0316146117c55760405162461bcd60e51b8152600401610a4490613f06565b6117ce82612e41565b6118145760405162461bcd60e51b81526020600482015260176024820152762330b4b632b2103a379031b932b0ba3290383630bcb2b960491b6044820152606401610a44565b61181d82612f43565b6118625760405162461bcd60e51b81526020600482015260166024820152754661696c656420746f206372656174652073636f726560501b6044820152606401610a44565b60008281526012602052604090208054600191908390811061188657611886613dba565b906000526020600020906007020160040160146101000a81548160ff02191690831515021790555060016012600084815260200190815260200160002082815481106118d4576118d4613dba565b906000526020600020906007020160040160156101000a81548160ff0219169083151502179055505050565b611908613271565b600081118015611919575060648111155b61197b5760405162461bcd60e51b815260206004820152602d60248201527f4665652070657263656e74206d75737420626520696e207468652072616e676560448201526c206f66202831202d203130302960981b6064820152608401610a44565b600b55565b6060600060015b60075481116119ed576000818152600d60205260409020600b015460ff161580156119c857506000818152600d60205260409020600b0154610100900460ff165b156119db57816119d781613d67565b9250505b806119e581613d67565b915050611987565b508067ffffffffffffffff811115611a0757611a07613a60565b604051908082528060200260200182016040528015611a4057816020015b611a2d6136db565b815260200190600190039081611a255790505b509150600060015b6007548111610890576000818152600d60205260409020600b015460ff16158015611a8957506000818152600d60205260409020600b0154610100900460ff165b15611c8357600d6000828152602001908152602001600020604051806101a001604052908160008201548152602001600182018054611ac790613d80565b80601f0160208091040260200160405190810160405280929190818152602001828054611af390613d80565b8015611b405780601f10611b1557610100808354040283529160200191611b40565b820191906000526020600020905b815481529060010190602001808311611b2357829003601f168201915b50505050508152602001600282018054611b5990613d80565b80601f0160208091040260200160405190810160405280929190818152602001828054611b8590613d80565b8015611bd25780601f10611ba757610100808354040283529160200191611bd2565b820191906000526020600020905b815481529060010190602001808311611bb557829003601f168201915b505050918352505060038201546001600160a01b03166020820152600482015460408201526005820154606082015260068201546080820152600782015460a0820152600882015460c0820152600982015460e0820152600a82015461010080830191909152600b9092015460ff80821615156101208401529290049091161515610140909101528483611c6581613d67565b945081518110611c7757611c77613dba565b60200260200101819052505b80611c8d81613d67565b915050611a48565b6060600060015b6007548111611ce757600081815260116020908152604080832033845290915290205460ff1615611cd55781611cd181613d67565b9250505b80611cdf81613d67565b915050611c9c565b508067ffffffffffffffff811115611d0157611d01613a60565b604051908082528060200260200182016040528015611d3a57816020015b611d27613750565b815260200190600190039081611d1f5790505b509150600060015b600754811161089057600081815260116020908152604080832033845290915290205460ff1615611f2a5760005b600082815260126020526040902054811015611f1b576000828152601260205260409020805482908110611da657611da6613dba565b90600052602060002090600702016040518061012001604052908160008201548152602001600182018054611dda90613d80565b80601f0160208091040260200160405190810160405280929190818152602001828054611e0690613d80565b8015611e535780601f10611e2857610100808354040283529160200191611e53565b820191906000526020600020905b815481529060010190602001808311611e3657829003601f168201915b50505091835250506002820154602082015260038201546001600160a01b0390811660408301526004830154908116606083015260ff600160a01b8204811615156080840152600160a81b90910416151560a0820152600582015460c082015260069091015460e0909101528551869085908110611ed357611ed3613dba565b602002602001018190525080858480611eeb90613d67565b955081518110611efd57611efd613dba565b60209081029190910101515280611f1381613d67565b915050611d70565b5081611f2681613d67565b9250505b80611f3481613d67565b915050611d42565b60606006805461095b90613d80565b606060126000838152602001908152602001600020805480602002602001604051908101604052809291908181526020016000905b8282101561094157838290600052602060002090600702016040518061012001604052908160008201548152602001600182018054611fbe90613d80565b80601f0160208091040260200160405190810160405280929190818152602001828054611fea90613d80565b80156120375780601f1061200c57610100808354040283529160200191612037565b820191906000526020600020905b81548152906001019060200180831161201a57829003601f168201915b5050509183525050600282015460208083019190915260038301546001600160a01b0390811660408401526004840154908116606084015260ff600160a01b8204811615156080850152600160a81b90910416151560a0830152600583015460c083015260069092015460e0909101529082526001929092019101611f80565b6120bf6136db565b600d6000838152602001908152602001600020604051806101a0016040529081600082015481526020016001820180546120f890613d80565b80601f016020809104026020016040519081016040528092919081815260200182805461212490613d80565b80156121715780601f1061214657610100808354040283529160200191612171565b820191906000526020600020905b81548152906001019060200180831161215457829003601f168201915b5050505050815260200160028201805461218a90613d80565b80601f01602080910402602001604051908101604052809291908181526020018280546121b690613d80565b80156122035780601f106121d857610100808354040283529160200191612203565b820191906000526020600020905b8154815290600101906020018083116121e657829003601f168201915b505050918352505060038201546001600160a01b03166020820152600482015460408201526005820154606082015260068201546080820152600782015460a0820152600882015460c0820152600982015460e0820152600a82015461010080830191909152600b9092015460ff808216151561012084015292900490911615156101409091015292915050565b6000338161229f8286612631565b9050838110156122ff5760405162461bcd60e51b815260206004820152602560248201527f45524332303a2064656372656173656420616c6c6f77616e63652062656c6f77604482015264207a65726f60d81b6064820152608401610a44565b6111628286868403612cfe565b6000336109ec818585613061565b6060600060015b6007548111612388576000818152600d60205260409020600b015460ff1615801561236357506000818152600d60205260409020600b0154610100900460ff16155b15612376578161237281613d67565b9250505b8061238081613d67565b915050612321565b508067ffffffffffffffff8111156123a2576123a2613a60565b6040519080825280602002602001820160405280156123db57816020015b6123c86136db565b8152602001906001900390816123c05790505b509150600060015b6007548111610890576000818152600d60205260409020600b015460ff1615801561242557506000818152600d60205260409020600b0154610100900460ff16155b1561261f57600d6000828152602001908152602001600020604051806101a00160405290816000820154815260200160018201805461246390613d80565b80601f016020809104026020016040519081016040528092919081815260200182805461248f90613d80565b80156124dc5780601f106124b1576101008083540402835291602001916124dc565b820191906000526020600020905b8154815290600101906020018083116124bf57829003601f168201915b505050505081526020016002820180546124f590613d80565b80601f016020809104026020016040519081016040528092919081815260200182805461252190613d80565b801561256e5780601f106125435761010080835404028352916020019161256e565b820191906000526020600020905b81548152906001019060200180831161255157829003601f168201915b505050918352505060038201546001600160a01b03166020820152600482015460408201526005820154606082015260068201546080820152600782015460a0820152600882015460c0820152600982015460e0820152600a82015461010080830191909152600b9092015460ff8082161515610120840152929004909116151561014090910152848361260181613d67565b94508151811061261357612613613dba565b60200260200101819052505b8061262981613d67565b9150506123e3565b6001600160a01b03918216600090815260036020908152604080832093909416825291909152205490565b61266461331b565b6000818152600c602052604090205460ff166126b85760405162461bcd60e51b815260206004820152601360248201527211d85b5948191bd95cc81b9bdd08195e1a5cdd606a1b6044820152606401610a44565b6000818152600d60205260409020600901546126d2612e22565b116127175760405162461bcd60e51b815260206004820152601560248201527423b0b6b29039ba34b6361034b71039b2b9b9b4b7b760591b6044820152606401610a44565b6000818152600d60205260409020600b0154610100900460ff16156127765760405162461bcd60e51b815260206004820152601560248201527411d85b5948185b1c9958591e481c185a59081bdd5d605a1b6044820152606401610a44565b6000600d6000838152602001908152602001600020604051806101a0016040529081600082015481526020016001820180546127b190613d80565b80601f01602080910402602001604051908101604052809291908181526020018280546127dd90613d80565b801561282a5780601f106127ff5761010080835404028352916020019161282a565b820191906000526020600020905b81548152906001019060200180831161280d57829003601f168201915b5050505050815260200160028201805461284390613d80565b80601f016020809104026020016040519081016040528092919081815260200182805461286f90613d80565b80156128bc5780601f10612891576101008083540402835291602001916128bc565b820191906000526020600020905b81548152906001019060200180831161289f57829003601f168201915b505050918352505060038201546001600160a01b03166020820152600482015460408201526005820154606082015260068201546080820152600782015460a0820152600882015460c080830191909152600983015460e080840191909152600a84015461010080850191909152600b9094015460ff80821615156101208601529490049093161515610140909201919091528201519082015191925060009161296591613374565b905060006129896064612983600b548561337490919063ffffffff16565b90613387565b905060006129a261299b836002613387565b8390613393565b905060006129ba826129b48686613393565b90613393565b90506129d76129d16000546001600160a01b031690565b8461320c565b6129e585606001518361320c565b6000868152600f602052604081205467ffffffffffffffff811115612a0c57612a0c613a60565b604051908082528060200260200182016040528015612a4557816020015b612a326137b2565b815260200190600190039081612a2a5790505b506000888152600f602090815260408083208054825181850281018501909352808352949550612af5949193909284015b82821015612aec5760008481526020908190206040805160c08101825260068602909201805483526001808201548486015260028201546001600160a01b03169284019290925260038101546060840152600481015460808401526005015460ff16151560a08301529083529092019101612a76565b5050505061339f565b905060005b8660a00151811015612c56576000612b1f8860a001518561338790919063ffffffff16565b9050612b48838381518110612b3657612b36613dba565b6020026020010151604001518261320c565b612b6f838381518110612b5d57612b5d613dba565b60200260200101516040015182613614565b60005b60008a8152600f6020526040902054811015612c415760008a8152600f60205260409020805482908110612ba857612ba8613dba565b600091825260209091206002600690920201015484516001600160a01b0390911690859085908110612bdc57612bdc613dba565b6020026020010151604001516001600160a01b031603612c2f5760008a8152600f60205260409020805483919083908110612c1957612c19613dba565b9060005260206000209060060201600401819055505b80612c3981613d67565b915050612b72565b50508080612c4e90613d67565b915050612afa565b5050506000858152600d60205260409020600b01805461ff00191661010017905550612c8592506136d5915050565b50565b612c90613271565b6001600160a01b038116612cf55760405162461bcd60e51b815260206004820152602660248201527f4f776e61626c653a206e6577206f776e657220697320746865207a65726f206160448201526564647265737360d01b6064820152608401610a44565b612c85816132cb565b6001600160a01b038316612d605760405162461bcd60e51b8152602060048201526024808201527f45524332303a20617070726f76652066726f6d20746865207a65726f206164646044820152637265737360e01b6064820152608401610a44565b6001600160a01b038216612dc15760405162461bcd60e51b815260206004820152602260248201527f45524332303a20617070726f766520746f20746865207a65726f206164647265604482015261737360f01b6064820152608401610a44565b6001600160a01b0383811660008181526003602090815260408083209487168084529482529182902085905590518481527f8c5be1e5ebec7d5bd14f71427d1e84f3dd0314c0f7b2291e5b200ac8c7c3b925910160405180910390a3505050565b6000612e30426103e8613f5c565b612e3c906103e8613f49565b905090565b6000612e51600880546001019055565b612e7e6040518060600160405280600081526020016000815260200160006001600160a01b031681525090565b600854815260208082018481523360408085018281526000888152600e865282812080546001808201835591835287832089516003909202019081559551868201559151600290950180546001600160a01b0319166001600160a01b039096169590951790945587845260108552818420928452918452808320805460ff1916909217909155858252600d909252908120600601805491612f1e83613d67565b919050555034600a6000828254612f359190613f49565b909155506001949350505050565b6000612f4d6137b2565b6000838152600f602081815260408084208054808752868401988952339287019283529383526001808501825590855291909320845160069093020191825594518186015590516002820180546001600160a01b0319166001600160a01b03909216919091179055606082015160038201556080820151600482015560a0909101516005909101805460ff19169115159190911790555090565b6000612ff38484612631565b9050600019811461305b578181101561304e5760405162461bcd60e51b815260206004820152601d60248201527f45524332303a20696e73756666696369656e7420616c6c6f77616e63650000006044820152606401610a44565b61305b8484848403612cfe565b50505050565b6001600160a01b0383166130c55760405162461bcd60e51b815260206004820152602560248201527f45524332303a207472616e736665722066726f6d20746865207a65726f206164604482015264647265737360d81b6064820152608401610a44565b6001600160a01b0382166131275760405162461bcd60e51b815260206004820152602360248201527f45524332303a207472616e7366657220746f20746865207a65726f206164647260448201526265737360e81b6064820152608401610a44565b6001600160a01b0383166000908152600260205260409020548181101561319f5760405162461bcd60e51b815260206004820152602660248201527f45524332303a207472616e7366657220616d6f756e7420657863656564732062604482015265616c616e636560d01b6064820152608401610a44565b6001600160a01b0380851660008181526002602052604080822086860390559286168082529083902080548601905591517fddf252ad1be2c89b69c2b068fc378daa952ba7f163c4a11628f55a4df523b3ef906131ff9086815260200190565b60405180910390a361305b565b6000826001600160a01b03168260405160006040518083038185875af1925050503d8060008114613259576040519150601f19603f3d011682016040523d82523d6000602084013e61325e565b606091505b505090508061326c57600080fd5b505050565b6000546001600160a01b031633146116e25760405162461bcd60e51b815260206004820181905260248201527f4f776e61626c653a2063616c6c6572206973206e6f7420746865206f776e65726044820152606401610a44565b600080546001600160a01b038381166001600160a01b0319831681178455604051919092169283917f8be0079c531659141344cd1fd0a4f28419497f9722a3daafe3b4186f6b6457e09190a35050565b60026001540361336d5760405162461bcd60e51b815260206004820152601f60248201527f5265656e7472616e637947756172643a207265656e7472616e742063616c6c006044820152606401610a44565b6002600155565b60006133808284613f5c565b9392505050565b60006133808284613f73565b60006133808284613f95565b805160609060005b6133b2600183613f95565b81101561360c5760005b60016133c88385613f95565b6133d29190613f95565b8110156135f9578481815181106133eb576133eb613dba565b602002602001015160a00151801561342757508461340a826001613f49565b8151811061341a5761341a613dba565b602002602001015160a001515b156135085784613438826001613f49565b8151811061344857613448613dba565b60200260200101516060015185828151811061346657613466613dba565b602002602001015160600151111561350357600085828151811061348c5761348c613dba565b60200260200101519050858260016134a49190613f49565b815181106134b4576134b4613dba565b60200260200101518683815181106134ce576134ce613dba565b602090810291909101015280866134e6846001613f49565b815181106134f6576134f6613dba565b6020026020010181905250505b6135e7565b84818151811061351a5761351a613dba565b602002602001015160a0015115801561355757508461353a826001613f49565b8151811061354a5761354a613dba565b602002602001015160a001515b156135e757600085828151811061357057613570613dba565b60200260200101519050858260016135889190613f49565b8151811061359857613598613dba565b60200260200101518683815181106135b2576135b2613dba565b602090810291909101015280866135ca846001613f49565b815181106135da576135da613dba565b6020026020010181905250505b806135f181613d67565b9150506133bc565b508061360481613d67565b9150506133a7565b509192915050565b6001600160a01b03821661366a5760405162461bcd60e51b815260206004820152601f60248201527f45524332303a206d696e7420746f20746865207a65726f2061646472657373006044820152606401610a44565b806004600082825461367c9190613f49565b90915550506001600160a01b0382166000818152600260209081526040808320805486019055518481527fddf252ad1be2c89b69c2b068fc378daa952ba7f163c4a11628f55a4df523b3ef910160405180910390a35050565b60018055565b604051806101a0016040528060008152602001606081526020016060815260200160006001600160a01b03168152602001600081526020016000815260200160008152602001600081526020016000815260200160008152602001600081526020016000151581526020016000151581525090565b60405180610120016040528060008152602001606081526020016000815260200160006001600160a01b0316815260200160006001600160a01b0316815260200160001515815260200160001515815260200160008152602001600081525090565b6040518060c00160405280600081526020016000815260200160006001600160a01b0316815260200160008152602001600081526020016000151581525090565b6000815180845260005b81811015613819576020818501810151868301820152016137fd565b506000602082860101526020601f19601f83011685010191505092915050565b60006101a0825184526020830151816020860152613859828601826137f3565b9150506040830151848203604086015261387382826137f3565b915050606083015161389060608601826001600160a01b03169052565b506080830151608085015260a083015160a085015260c083015160c085015260e083015160e0850152610100808401518186015250610120808401518186015250610140808401518186015250610160808401516138f18287018215159052565b50506101809283015115159390920192909252919050565b6000602080830181845280855180835260408601915060408160051b870101925083870160005b8281101561395e57603f1988860301845261394c858351613839565b94509285019290850190600101613930565b5092979650505050505050565b60006020828403121561397d57600080fd5b5035919050565b602080825282518282018190526000919060409081850190868401855b828110156139fa578151805185528681015187860152858101516001600160a01b031686860152606080820151908601526080808201519086015260a09081015115159085015260c090930192908501906001016139a1565b5091979650505050505050565b60208152600061338060208301846137f3565b80356001600160a01b0381168114613a3157600080fd5b919050565b60008060408385031215613a4957600080fd5b613a5283613a1a565b946020939093013593505050565b634e487b7160e01b600052604160045260246000fd5b600082601f830112613a8757600080fd5b813567ffffffffffffffff80821115613aa257613aa2613a60565b604051601f8301601f19908116603f01168101908282118183101715613aca57613aca613a60565b81604052838152866020858801011115613ae357600080fd5b836020870160208301376000602085830101528094505050505092915050565b60008060008060008060c08789031215613b1c57600080fd5b863567ffffffffffffffff80821115613b3457600080fd5b613b408a838b01613a76565b97506020890135915080821115613b5657600080fd5b50613b6389828a01613a76565b96999698505050506040850135946060810135946080820135945060a09091013592509050565b600080600060608486031215613b9f57600080fd5b613ba884613a1a565b9250613bb660208501613a1a565b9150604084013590509250925092565b60008060408385031215613bd957600080fd5b50508035926020909101359150565b600080600060608486031215613bfd57600080fd5b505081359360208301359350604090920135919050565b600060208284031215613c2657600080fd5b61338082613a1a565b60006020808301818452808551808352604092508286019150828160051b87010184880160005b83811015613cfd57603f1989840301855281516101208151855288820151818a870152613c85828701826137f3565b9150508782015188860152606080830151613caa828801826001600160a01b03169052565b50506080828101516001600160a01b03169086015260a08083015115159086015260c08083015115159086015260e080830151908601526101009182015191909401529386019390860190600101613c56565b509098975050505050505050565b6020815260006133806020830184613839565b60008060408385031215613d3157600080fd5b613d3a83613a1a565b9150613d4860208401613a1a565b90509250929050565b634e487b7160e01b600052601160045260246000fd5b600060018201613d7957613d79613d51565b5060010190565b600181811c90821680613d9457607f821691505b602082108103613db457634e487b7160e01b600052602260045260246000fd5b50919050565b634e487b7160e01b600052603260045260246000fd5b601f82111561326c57600081815260208120601f850160051c81016020861015613df75750805b601f850160051c820191505b81811015613e1657828155600101613e03565b505050505050565b815167ffffffffffffffff811115613e3857613e38613a60565b613e4c81613e468454613d80565b84613dd0565b602080601f831160018114613e815760008415613e695750858301515b600019600386901b1c1916600185901b178555613e16565b600085815260208120601f198616915b82811015613eb057888601518255948401946001909101908401613e91565b5085821015613ece5787850151600019600388901b60f8161c191681555b5050505050600190811b01905550565b6020808252600e908201526d11d85b59481b9bdd08199bdd5b9960921b604082015260600190565b602080825260139082015272556e617574686f72697a656420656e7469747960681b604082015260600190565b634e487b7160e01b600052603160045260246000fd5b808201808211156109f2576109f2613d51565b80820281158282048414176109f2576109f2613d51565b600082613f9057634e487b7160e01b600052601260045260246000fd5b500490565b818103818111156109f2576109f2613d5156fea2646970667358221220ebf53650ab861863ab65dfb7414cf2742f71fc53931b0888c083e0301279057464736f6c63430008110033",
  "linkReferences": {},
  "deployedLinkReferences": {}
}